:100000000C9406010C9433010C9433010C943301CD
:100010000C9433010C9433010C9433010C94330190
:100020000C9433010C9433010C9433010C94330180
:100030000C9433010C9433010C9433010C94330170
:100040000C9433010C9433010C9433010C94330160
:100050000C9433010C9433010C9433010C94C404BC
:100060000C9433010C946D060C94B5070C94330179
:100070000C9433010C9433010C9433010C94330130
:100080000C9433010C9433010C9433010C94330120
:100090000C94AD060C94F4070C9433010C943301CA
:1000A0000C9433010C9433010C9433010C94330100
:1000B0000C9433010C9433010C9433010C943301F0
:1000C0000C9433010C9433010C9433010C94ED0621
:1000D0000C9433080C9433010C942D070C94720883
:1000E0000C94330100002100240027002A002D0079
:1000F0003000330001010000040107010A01000083
:100100002200250028002B002E00310034000201BF
:100110000000050108010B0100002000230026005B
:1001200029002C002F00320000010000030106010D
:10013000090105050505070508080808020202026D
:100140000A0A080804040404010101010101010173
:100150000303030303030303040707070C0C0C0C3E
:100160000C0C0C0C02020202060606060606060627
:100170000B0B0B0B0B0B0B0B0102102020080810B4
:100180002040102040800201020108040201010207
:1001900004081020408080402010080402018004E0
:1001A000020180402010080402010804020101023B
:1001B0000408102040800102040810204080000044
:1001C000090A02080B0C0D070603040100000000D9
:1001D000000000000000000000000000000000001F
:1001E0000000000000000000000011100F000000DF
:1001F00000000000000000000000000000000000FF
:1002000000000000E0018F045B09880411241FBE78
:10021000CFEFD1E2DEBFCDBF00E00CBF12E0A0E027
:10022000B2E0ECE7F1E200E00BBF02C007900D92F4
:10023000A233B107D9F71BBE15E0A2E3B2E001C0BB
:100240001D92A93CB107E1F712E0CAE0D2E004C078
:100250002297FE010E94AD10C430D107C9F70E9459
:10026000B7040C94B1100C940000FB01DC0102C037
:1002700001900D9241505040D8F70895FB01DC01E8
:1002800001900D920020E1F70895089508954F928E
:100290005F926F927F928F929F92AF92BF92CF9216
:1002A000DF92EF92FF920F931F935C01962E672EC1
:1002B000842E552E722E432E862F61E00E948605D5
:1002C000882D61E00E948605872D61E00E948605E9
:1002D000802F61E00E9486058E2D61E00E948605D8
:1002E0008C2D61E00E948605F501908261828282F8
:1002F00053827482458206831783E086F186C28624
:10030000D3861F910F91FF90EF90DF90CF90BF9019
:10031000AF909F908F907F906F905F904F900895D7
:100320000F931F938C0184599F4F0E94F301C801C2
:10033000805A9F4F0E944601C8018C5A9F4F0E94CD
:100340004601C801885B9F4F0E944601C801CC96B8
:100350000E944601C801C0960E944601C801489605
:100360000E94D503C8010E94D5031F910F910895E3
:100370000F931F938C010E94E103C80148960E94CD
:10038000E103C801C0960E944501C801CC960E94B5
:100390004501C801885B9F4F0E944501C8018C5AE6
:1003A0009F4F0E944501C801805A9F4F0E944501FE
:1003B000C80184599F4F0E94F7011F910F91089522
:1003C000CF92EF920F9382E392E06CE04BE025E056
:1003D00004E053E0E52E32E0C32E0E94F40D0F91AD
:1003E000EF90CF90089502960E94FC010895029626
:1003F0000E94FB010895089508958F929F92AF92F5
:10040000BF92CF92DF92EF92FF920F931F93CF9301
:10041000DF937B018C01EA012CE330E040E050E007
:100420000E9475106883C801B7012CE330E040E0FA
:1004300050E00E947510122F032FF42EE52E622F2C
:10044000732F842F952F2CE330E040E050E00E9482
:1004500075106983612F702F8F2D9E2D2CE330E056
:1004600040E050E00E947510122F032FF42EE52E6D
:10047000622F732F842F952F28E130E040E050E069
:100480000E9475106A83612F702F8F2D9E2D28E199
:1004900030E040E050E00E94751079018A01C80107
:1004A000B7016C5F7F4F8F4F9F4F27E030E040E0F8
:1004B00050E00E9475106F5F6B8320E0AA24BB247C
:1004C000650101C02F5F822E9924F401EE54F84F8C
:1004D000CF0183709070892B99F4CF0164E670E0AE
:1004E0000E946210892B39F4CF0160E971E00E940B
:1004F0006210892B29F48EE691E0A0E0B0E004C000
:100500008DE691E0A0E0B0E0A80EB91ECA1EDB1E89
:10051000C501A0E0B0E0E816F9060A071B0790F64F
:100520002E83F401EE54F84F83E0882E912C8E2216
:100530009F228114910499F4CF0164E670E00E9437
:100540006210892B39F4CF0160E971E00E946210DA
:10055000892B29F48EE691E0A0E0B0E004C08DE69E
:1005600091E0A0E0B0E0A81AB90ACA0ADB0A980133
:1005700087010A191B092C093D09CF0164E670E0C7
:100580000E9462107C01CF0160E971E00E9462105C
:10059000AC01EDE0F2E060E0613051F481149104CF
:1005A00049F4E114F10441F44115510529F002C068
:1005B000808103C08CE101C08DE190E0A0E0B0E05B
:1005C000081719072A073B0740F0081B190B2A0BCD
:1005D0003B0B6F5F31966C30F9F66F5F6D83802F48
:1005E0008F5F8C83DF91CF911F910F91FF90EF90E0
:1005F000DF90CF90BF90AF909F908F900895EF9233
:10060000FF920F931F937B018C0180915E0290916A
:100610005F02A0916002B0916102E816F9060A0734
:100620001B0771F0C801B70143E552E00E94FD01CC
:10063000E0925E02F0925F0200936002109361020A
:100640001F910F91FF90EF9008956093490270936E
:100650004A0280934B0290934C0220910302309106
:1006600004024091050250910602260F371F481FD1
:10067000591F20934D0230934E0240934F025093E6
:10068000500282E090E090935202809351020E94C7
:100690000C0560935A0270935B0280935C02909306
:1006A0005D020895EF92FF920F931F931CC02F5F7E
:1006B0003F4F4F4F5F4F2093490230934A02409380
:1006C0004B0250934C0288EE93E0A0E0B0E0E80EBD
:1006D000F91E0A1F1B1FE0925A02F0925B02009360
:1006E0005C0210935D020E940C05E0905A02F090AB
:1006F0005B0200915C0210915D026E197F09800B14
:10070000910B2091490230914A0240914B02509145
:100710004C02685E73408040904048F680914D02E4
:1007200090914E02A0914F02B091500228173907C4
:100730004A075B07E8F0E0914702F09148023097E2
:10074000B9F01995611571058105910519F00E949F
:1007500025030EC020E030E08091510290915202BA
:10076000892B11F021E030E03093520220935102A6
:100770006091490270914A0280914B0290914C0223
:100780001F910F91FF90EF9008950E9452030E94D5
:10079000FF028091540290E008950E9452030E944B
:1007A000FF028091550290E008950F931F938C01F2
:1007B0000C960E944601C8010E9446011F910F91AC
:1007C00008950F931F938C010E944501C8010C9658
:1007D0000E9445011F910F910895CF92DF92EF92F1
:1007E000FF920F931F938130910509F069C06F5FED
:1007F0007F4F09F086C082E692E066E170E047E153
:1008000050E028E130E009E110E0FAE1EF2EF12CB0
:10081000EBE1CE2ED12C0E9447018EE692E06CE1F6
:1008200070E04DE150E02EE130E00FE110E0B0E289
:10083000EB2EF12CA1E2CA2ED12C0E9447018AE7AF
:1008400092E062E270E043E250E024E230E005E250
:1008500010E0F6E2EF2EF12CE7E2CE2ED12C0E9432
:10086000470186E892E068E270E049E250E02AE25F
:1008700030E00BE210E0BCE2EB2EF12CADE2CA2E30
:10088000D12C0E94470182E992E06EE270E04FE2D3
:1008900050E020E330E001E310E0F2E3EF2EF12C32
:1008A000E3E3CE2ED12C0E9447018EE992E060E076
:1008B00072E00E944C0C85EA92E00E94B80121C0CF
:1008C000892BF9F46F5F7F4FE1F485EA92E00E9493
:1008D00090018EE992E00E94660C82E992E00E940B
:1008E000460186E892E00E9446018AE792E00E9473
:1008F00046018EE692E00E94460182E692E00E9466
:1009000046011F910F91FF90EF90DF90CF900895D7
:1009100080E090E06FEF7FEF0E94ED03089581E0AB
:1009200090E06FEF7FEF0E94ED0308950F931F9308
:100930000E94CD03BC010DE315E0C8014AE050E080
:100940000E94AE0BC80161E072E00E94CD0B0E94D4
:10095000C503BC01C8014AE050E00E949B0BC801DE
:1009600060E072E00E94D00B1F910F910895CF9329
:10097000DF930E942405CCE6D7E00E9496042097DE
:10098000E1F30E946C07F9CF1F920F920FB60F92FE
:1009900011242F933F938F939F93AF93BF93809195
:1009A000180390911903A0911A03B0911B03309181
:1009B0001C030196A11DB11D232F2D5F2D3720F0A3
:1009C0002D570196A11DB11D20931C038093180380
:1009D00090931903A0931A03B0931B0380911403FF
:1009E00090911503A0911603B09117030196A11DD4
:1009F000B11D8093140390931503A0931603B09335
:100A00001703BF91AF919F918F913F912F910F90BD
:100A10000FBE0F901F9018958FB7F8942091180370
:100A20003091190340911A0350911B038FBFB901F4
:100A3000CA010895019739F0880F991F880F991FEF
:100A400002970197F1F70895789484B5826084BD88
:100A500084B5816084BD85B5826085BD85B58160C2
:100A600085BDEEE6F0E0808181608083E1E8F0E022
:100A70001082808182608083808181608083E0E851
:100A8000F0E0808181608083E1EBF0E08081846030
:100A90008083E0EBF0E0808181608083E1E9F0E039
:100AA000808182608083808181608083E0E9F0E0E2
:100AB000808181608083E1EAF0E0808182608083D0
:100AC000808181608083E0EAF0E0808181608083C2
:100AD000E1E2F1E0808182608083808181608083B7
:100AE000E0E2F1E0808181608083EAE7F0E08081EC
:100AF0008460808380818260808380818160808344
:100B00008081806880831092C1000895CF93DF9325
:100B1000482F50E0CA0188589E4FFC0134914E5C2A
:100B20005E4FFA018491882369F190E0880F991F44
:100B3000FC01EC51FF4FA591B491FC01E250FF4F35
:100B4000C591D491662351F42FB7F8948C91932FCB
:100B5000909589238C93888189230BC0623061F43E
:100B60002FB7F8948C91932F909589238C9388813B
:100B7000832B88832FBF06C09FB7F8948C91832B5B
:100B80008C939FBFDF91CF910895893009F449C0BC
:100B90008A30A0F4843051F1853040F4823079F10C
:100BA000833000F5813009F063C026C0873079F1C9
:100BB000883098F5863009F05BC025C08D3009F487
:100BC00042C08E3028F48B30B1F18C30C0F52DC08E
:100BD000803109F442C0813109F445C08F3009F0F9
:100BE00047C037C0809180008F7703C0809180001C
:100BF0008F7D80938000089584B58F7702C084B57F
:100C00008F7D84BD08958091B0008F7703C080915F
:100C1000B0008F7D8093B0000895809190008F7711
:100C200007C0809190008F7D03C080919000877FE6
:100C30008093900008958091A0008F7707C08091E5
:100C4000A0008F7D03C08091A000877F8093A000CB
:100C50000895809120018F7703C0809120018F7DBE
:100C600080932001089580912001877F8093200147
:100C70000895FF920F931F93F62E482F50E0CA015C
:100C800082549E4FFC012491CA0188589E4FFC015A
:100C900014914E5C5E4FFA0104910023C9F02223A7
:100CA00019F0822F0E94C505E02FF0E0EE0FFF1F24
:100CB000E250FF4FA591B4919FB7F894FF2021F423
:100CC0008C911095812302C08C91812B8C939FBFB6
:100CD0001F910F91FF90089508951F920F920FB6E4
:100CE0000F920BB60F9211242F933F934F938F9334
:100CF0009F93EF93FF938091C00082FD1DC04091B0
:100D0000C60020915D0330915E032F5F3F4F2F732C
:100D1000307080915F03909160032817390771F05C
:100D2000E0915D03F0915E03E35EFC4F40833093FE
:100D30005E0320935D0302C08091C600FF91EF9196
:100D40009F918F914F913F912F910F900BBE0F90DC
:100D50000FBE0F901F90189508951F920F920FB617
:100D60000F920BB60F9211242F933F934F938F93B3
:100D70009F93EF93FF938091C80082FD1DC0409127
:100D8000CE002091E5033091E6032F5F3F4F2F7394
:100D900030708091E7039091E8032817390771F0CC
:100DA000E091E503F091E603EB55FC4F408330936F
:100DB000E6032093E50302C08091CE00FF91EF91FE
:100DC0009F918F914F913F912F910F900BBE0F905C
:100DD0000FBE0F901F90189508951F920F920FB697
:100DE0000F920BB60F9211242F933F934F938F9333
:100DF0009F93EF93FF938091D00082FD1DC040919F
:100E0000D60020916D0430916E042F5F3F4F2F73F9
:100E1000307080916F04909170042817390771F039
:100E2000E0916D04F0916E04E35DFB4F40833093DD
:100E30006E0420936D0402C08091D600FF91EF9163
:100E40009F918F914F913F912F910F900BBE0F90DB
:100E50000FBE0F901F90189508951F920F920FB616
:100E60000F920BB60F9211242F933F934F938F93B2
:100E70009F93EF93FF938091300182FD1DC04091BD
:100E800036012091F5043091F6042F5F3F4F2F7308
:100E900030708091F7049091F8042817390771F0A9
:100EA000E091F504F091F604EB54FB4F408330934E
:100EB000F6042093F50402C080913601FF91EF9172
:100EC0009F918F914F913F912F910F900BBE0F905B
:100ED0000FBE0F901F901895E0914905F0914A05BB
:100EE000E05CFF4F8191919120813181821B930BB6
:100EF0008F739070892B11F00E946C06E0916B0546
:100F0000F0916C05E05CFF4F8191919120813181DE
:100F1000821B930B8F739070892B11F00E94AC068B
:100F2000E0918D05F0918E05E05CFF4F81919191EC
:100F300020813181821B930B8F739070892B11F06C
:100F40000E94EC06E091AF05F091B005E05CFF4F28
:100F50008191919120813181821B930B8F739070CD
:100F6000892B11F00E942C0708951F920F920FB643
:100F70000F920BB60F9211242F933F938F939F9351
:100F8000EF93FF932091A1033091A2038091A303DB
:100F90009091A4032817390731F48091C1008F7D07
:100FA0008093C10014C0E091A303F091A403EF5912
:100FB000FC4F20818091A3039091A40301968F732D
:100FC00090709093A4038093A3032093C600FF9195
:100FD000EF919F918F913F912F910F900BBE0F90AA
:100FE0000FBE0F901F9018951F920F920FB60F9281
:100FF0000BB60F9211242F933F938F939F93EF93F0
:10100000FF932091290430912A0480912B04909120
:101010002C042817390731F48091C9008F7D809303
:10102000C90014C0E0912B04F0912C04E751FC4F4F
:10103000208180912B0490912C0401968F739070E5
:1010400090932C0480932B042093CE00FF91EF917A
:101050009F918F913F912F910F900BBE0F900FBEDC
:101060000F901F9018951F920F920FB60F920BB60C
:101070000F9211242F933F938F939F93EF93FF939E
:101080002091B1043091B2048091B3049091B404E2
:101090002817390731F48091D1008F7D8093D100DA
:1010A00014C0E091B304F091B404EF58FB4F2081D9
:1010B0008091B3049091B40401968F7390709093D3
:1010C000B4048093B3042093D600FF91EF919F91D5
:1010D0008F913F912F910F900BBE0F900FBE0F90ED
:1010E0001F9018951F920F920FB60F920BB60F928A
:1010F00011242F933F938F939F93EF93FF9320910E
:10110000390530913A0580913B0590913C052817AF
:10111000390731F4809131018F7D8093310114C002
:10112000E0913B05F0913C05E750FB4F2081809119
:101130003B0590913C0501968F73907090933C0510
:1011400080933B0520933601FF91EF919F918F9102
:101150003F912F910F900BBE0F900FBE0F901F90DD
:101160001895DC011C96ED91FC911D97E05CFF4FFA
:101170002191319180819181281B390B2F7330701F
:10118000C9010895DC011C96ED91FC911D97E05C6E
:10119000FF4F20813181E054F040DF01AE5BBF4F53
:1011A0008D919C9111972817390719F42FEF3FEF74
:1011B00007C08D919C91E80FF91F8081282F30E0A6
:1011C000C9010895DC011C96ED91FC911D97E05C2E
:1011D000FF4F20813181E054F040DF01AE5BBF4F13
:1011E0008D919C9111972817390719F42FEF3FEF34
:1011F00010C08D919C911197E80FF91F20818D915E
:101200009C91119701968F73907011969C938E9379
:1012100030E0C9010895DC0191968C919197882363
:1012200039F05496ED91FC915597808186FFF9CF66
:1012300091961C920895CF93DF93EC01EE85FF8584
:10124000E05CFF4F20813181E054F0402F5F3F4F41
:101250002F733070DF01AE5BBF4F8D919C91119762
:1012600028173907D1F3E05CFF4F80819181E0546A
:10127000F040E80FF91F6083EE85FF85E05CFF4FCB
:1012800031832083EE89FF89208181E090E00F8CFB
:1012900002C0880F991F0A94E2F7282B208381E06F
:1012A00089A3EC89FD8980818064808381E090E05E
:1012B000DF91CF9108951F931092400510923F0542
:1012C00028EE33E040E050E02093410530934205A2
:1012D00040934305509344056DE172E070933E05E1
:1012E00060933D058DE193E090934A058093490515
:1012F00081E693E090934C0580934B0585EC90E05C
:1013000090934E0580934D0584EC90E090935005AA
:1013100080934F0580EC90E09093520580935105A7
:1013200081EC90E0909354058093530582EC90E01B
:10133000909356058093550586EC90E09093580560
:101340008093570514E010935905B3E0B0935A0504
:10135000A7E0A0935B05F5E0F0935C05E1E0E09386
:101360005D0510926205109261052093630530932C
:10137000640540936505509366057093600560931E
:101380005F0585EA93E090936C0580936B0589EE89
:1013900093E090936E0580936D058DEC90E09093B3
:1013A000700580936F058CEC90E0909372058093AC
:1013B000710588EC90E0909374058093730589EC37
:1013C00090E090937605809375058AEC90E0909379
:1013D0007805809377058EEC90E090937A05809362
:1013E000790510937B05B0937C05A0937D05F09360
:1013F0007E05E0937F05109284051092830520936B
:101400008505309386054093870550938805709332
:101410008205609381058DE294E090938E05809320
:101420008D0581E794E09093900580938F0585ED7D
:1014300090E0909392058093910584ED90E09093D5
:1014400094058093930580ED90E0909396058093AA
:10145000950581ED90E0909398058093970582ED36
:1014600090E090939A058093990586ED90E0909393
:101470009C0580939B0510939D05B0939E05A093BA
:101480009F05F093A005E093A1051092A605109288
:10149000A5052093A7053093A8054093A90550936F
:1014A000AA057093A4056093A30585EB94E090933F
:1014B000B0058093AF0589EF94E09093B2058093D7
:1014C000B10585E391E09093B4058093B30584E37F
:1014D00091E09093B6058093B50580E391E09093F9
:1014E000B8058093B70581E391E09093BA058093A6
:1014F000B90582E391E09093BC058093BB0586E338
:1015000091E09093BE058093BD051093BF05B09305
:10151000C005A093C105F093C205E093C3051F91D8
:101520000895CF92DF92EF92FF920F931F93CF9384
:10153000DF937C016B018A01C0E0D0E00FC0D601CF
:101540006D916D01D701ED91FC910190F081E02D3D
:10155000C7011995C80FD91F015010400115110579
:1015600071F7CE01DF91CF911F910F91FF90EF9016
:10157000DF90CF900895EF92FF920F931F938C010D
:10158000DC01ED91FC910190F081E02D6DE0199569
:101590007C01D801ED91FC910190F081E02DC80112
:1015A0006AE019959C012E0D3F1DC9011F910F91F5
:1015B000FF90EF900895CF93DF93EC0161157105D3
:1015C00019F420E030E00FC0DB010D900020E9F7B6
:1015D0001197A61BB70BE881F9810280F381E02DFA
:1015E000AD0119959C01C901DF91CF9108954F92EA
:1015F0005F927F928F929F92AF92BF92CF92DF9233
:10160000EF92FF920F931F93DF93CF93CDB7DEB787
:10161000A1970FB6F894DEBF0FBECDBF2C01742E7C
:10162000CB01223008F42AE019A231E2C32ED12CDA
:10163000CC0EDD1E822E9924AA24BB24672D752F83
:10164000A50194010E94751079018A01C801B701B2
:10165000A50194010E944310472D461B0894C10820
:10166000D1084A3014F4405D01C0495CF601408362
:10167000E114F1040105110521F07E2C5F2DC80154
:10168000DDCFC201B6010E94DB0AA1960FB6F89425
:10169000DEBF0FBECDBFCF91DF911F910F91FF90A5
:1016A000EF90DF90CF90BF90AF909F908F907F9002
:1016B0005F904F900895CF92DF92EF92FF920F9339
:1016C0001F93CF93DF93EC016A017B012115310554
:1016D00041F4E881F9810190F081E02D642F1995A2
:1016E0001FC02A303105D1F477FF17C0E881F98196
:1016F0000190F081E02D6DE219958C01442755276A
:10170000BA014C195D096E097F09CE012AE00E94D9
:10171000F70A9801280F391F04C02AE00E94F70A2F
:101720009C01C901DF91CF911F910F91FF90EF9024
:10173000DF90CF900895EF92FF920F931F937B015C
:101740009A010027F7FC0095102FB801A7010E940D
:101750005B0B1F910F91FF90EF900895CF92DF9256
:10176000EF92FF920F931F936C017B019A01002768
:10177000F7FC0095102FB801A7010E945B0B8C01AC
:10178000C6010E94BB0A080F191FC8011F910F91C3
:10179000FF90EF90DF90CF9008950E94DB0A0895AC
:1017A000EF92FF920F931F937C010E94DB0A8C0142
:1017B000C7010E94BB0A080F191FC8011F910F9192
:1017C000FF90EF9008950F931F93CF93DF93EC0159
:1017D0008B016F5F7F4F888199810E94620F009714
:1017E00011F480E005C0998388831B830A8381E01C
:1017F000DF91CF911F910F910895CF93DF93EC016B
:1018000088819981892B29F08A819B818617970786
:1018100060F4CE010E94E30B882341F08C819D810E
:10182000892B19F4E881F981108281E0DF91CF9151
:101830000895CF93DF93EC0188819981009711F08F
:101840000E94CA0E198218821D821C821B821A8273
:10185000DF91CF910895EF92FF920F931F93CF9353
:10186000DF93EC017B018A01BA010E94FD0B882302
:1018700021F4CE010E94190C07C01D830C838881BE
:101880009981B7010E943E01CE01DF91CF911F9156
:101890000F91FF90EF900895CF93DF93EC011982A1
:1018A00018821B821A821D821C821E82611571059C
:1018B00051F0DB010D900020E9F71197A61BB70B43
:1018C000AD010E942B0CDF91CF910895FC01808126
:1018D00091810E94CA0E08950F931F938C01FC0101
:1018E000868160E00E94390681E090E00E941A053E
:1018F000F801868161E00E94390681E090E00E9453
:101900001A05F801868160E00E94390684E690E0BD
:101910000E941A051F910F910895CF92DF92EF92C6
:10192000FF920F931F93CF93DF93D82EC92E282FAA
:10193000392FC9018C01C0E0D0E0E62EFF24F80168
:10194000878161E00E948605B7010C2E02C0759563
:1019500067950A94E2F76170F80187810E94390661
:1019600021960F5F1F4FC830D10549F78D2D9C2D53
:101970000E946C0CDF91CF911F910F91FF90EF901F
:10198000DF90CF900895CF92DF92EF92FF920F9366
:101990001F93CF93DF93D82EC92E282F392FC9013B
:1019A0008C01C0E0D0E0E62EFF24F801878161E0E1
:1019B0000E948605B7010C2E02C0759567950A94A2
:1019C000E2F76170F80187810E94390621960F5F66
:1019D0001F4FC430D10549F78D2D9C2D0E946C0CF2
:1019E000DF91CF911F910F91FF90EF90DF90CF90FB
:1019F00008951F93CF93DF93EC01162F8C81642FF2
:101A00000E9439068D818F3F19F060E00E943906EF
:101A10008F8584FF05C0CE01612F0E948D0C0EC002
:101A2000612F70E084E0759567958A95E1F7CE01A6
:101A30000E94C30CCE01612F0E94C30CDF91CF9195
:101A40001F91089541E00E94F90C81E090E0089513
:101A500040E00E94F90C0895FC016089862F8460A3
:101A6000808B6C60CF010E94280D089561E00E9478
:101A7000280D80ED97E00E941A050895CF93DF931B
:101A8000EC01423018F08F8588608F874B8B1C8A61
:101A9000222329F0413019F48F8584608F8780E5F7
:101AA00093EC0E941A058C8160E00E9439068E81B9
:101AB00060E00E9439068D818F3F19F060E00E943E
:101AC00039066F8564FD1DC0CE0163E00E94C30C22
:101AD00084E991E10E941A05CE0163E00E94C30CE3
:101AE00084E991E10E941A05CE0163E00E94C30CD3
:101AF00086E990E00E941A05CE0162E00E94C30CC4
:101B000016C06062CE010E94280D84E991E10E9416
:101B10001A056F856062CE010E94280D86E990E06B
:101B20000E941A056F856062CE010E94280D6F85A4
:101B30006062CE010E94280D84E0888BCE010E9455
:101B40002C0DCE010E94360D82E0898BCE0166E01D
:101B50000E94280DDF91CF9108956F927F928F920E
:101B6000AF92CF92EF920F931F93DF93CF93CDB7A6
:101B7000DEB73C01162F842FF301448325830683AF
:101B8000E782C086A18682869E8593879F859487FB
:101B9000988995879989968761E00E948605F30167
:101BA00085818F3F19F061E00E948605F3018681EF
:101BB00061E00E948605112319F0F301178603C026
:101BC00080E1F3018787C30160E141E020E00E94EA
:101BD0003E0DCF91DF911F910F91EF90CF90AF907D
:101BE0008F907F906F9008958F92AF92CF92EF92E7
:101BF0000F931F93CF93DF93DC01362F542F722F57
:101C0000102FAE2C8C2C13961C921E9212978DE2E4
:101C100092E011969C938E9300D00F92EDB7FEB791
:101C20003196CDB7DEB71982118212821382CD01AF
:101C300061E0432F2FEF052FE72EC12E0E94AD0D3F
:101C40000F900F900F900F90DF91CF911F910F91F8
:101C5000EF90CF90AF908F9008950F931F93CF93F5
:101C6000DF93BC018230910510F462E070E0E091F6
:101C7000C705F091C805A0E0B0E040E050E024C006
:101C80008081918186179707D0F08617970771F4A6
:101C900082819381109729F013969C938E931297CB
:101CA0002CC09093C8058093C70527C041155105E6
:101CB00019F08417950718F4EF018D01AC01DF01CD
:101CC000828193819C01F9013097D1F6411551052C
:101CD000F9F0CA01861B970B8430910580F48A8144
:101CE0009B810115110521F0F8019383828304C0C3
:101CF0009093C8058093C705FE01329645C0FE014A
:101D0000E80FF91F619371930297998388833CC010
:101D10008091C5059091C605892B41F480910902F7
:101D200090910A029093C6058093C50540910B02DD
:101D300050910C024115510541F44DB75EB78091A9
:101D4000070290910802481B590B2091C50530915C
:101D5000C60524173507B0F4CA01821B930B8617FA
:101D6000970780F0AB014E5F5F4F8417950750F0E7
:101D7000420F531F5093C6054093C505F901619367
:101D8000719302C0E0E0F0E0CF01DF91CF911F91AD
:101D90000F910895CF93DF939C01009709F48FC0B2
:101DA000EC0122971B821A826091C7057091C805C9
:101DB0006115710581F488819981820F931F2091AB
:101DC000C5053091C6052817390739F5D093C605E2
:101DD000C093C50574C0DB0140E050E0AC17BD07FF
:101DE00008F1BB83AA83FE0121913191E20FF31F19
:101DF000AE17BF0779F48D919C911197280F391F69
:101E00002E5F3F4F3983288312968D919C911397B3
:101E10009B838A834115510571F4D093C805C09303
:101E2000C7054DC012968D919C911397AD010097F7
:101E300011F0DC01D3CFDA011396DC93CE93129725
:101E4000FA0121913191E20FF31FCE17DF0769F4F8
:101E500088819981280F391F2E5F3F4FFA01318306
:101E600020838A819B8193838283E0E0F0E0DB0121
:101E700012968D919C911397009719F0BC01FD016A
:101E8000F6CFAB014E5F5F4FDB018D919C91840FCC
:101E9000951F2091C5053091C6052817390779F49B
:101EA000309729F41092C8051092C70502C013821A
:101EB0001282425050405093C6054093C505DF91B1
:101EC000CF9108956F927F928F929F92AF92BF921F
:101ED000CF92DF92EF92FF920F931F93CF93DF93F6
:101EE0008C01009729F4CB010E942D0E8C01BBC000
:101EF0008EEFE82E8FEFF82EE00EF11E4801860ED1
:101F0000971E8E149F0408F4ACC0D7014D915C91CC
:101F1000119746175707B8F04530510508F4A3C08C
:101F2000CA0104978617970708F49DC04250504095
:101F3000461B570BF401419351936D937C93CF0152
:101F40000E94CA0E90C05B01A41AB50A3801640E43
:101F5000751EA091C705B091C805CC24DD24E0E032
:101F6000F0E047C0A615B705A9F5CD91DC91119712
:101F7000CE0102968A159B0568F1CE018A199B094C
:101F8000029612962C91129713963C91059758F051
:101F9000F40122833383CA19DB09D183C083D701BB
:101FA0006D937C9309C04E5F5F4F4C0F5D1FF7012F
:101FB00051834083C901FC01C114D10431F0D60121
:101FC0001396FC93EE9312974EC0F093C805E093DE
:101FD000C70549C08D919C911197E817F90708F43E
:101FE000FC016D0112968C91129713969C919C01A5
:101FF000D901109709F0B6CF8091C5059091C6051B
:1020000086159705E9F4E617F707D0F420910B023F
:1020100030910C022115310541F42DB73EB7809166
:10202000070290910802281B390B82169306C8F408
:102030009092C6058092C505F7017183608313C035
:10204000CB010E942D0EEC01009759F0D7014D9164
:102050005C91B8010E943501C8010E94CA0E8E0130
:1020600002C000E010E0C801DF91CF911F910F91F5
:10207000FF90EF90DF90CF90BF90AF909F908F90A8
:102080007F906F900895629FD001739FF001829FAF
:10209000E00DF11D649FE00DF11D929FF00D839FF7
:1020A000F00D749FF00D659FF00D9927729FB00D94
:1020B000E11DF91F639FB00DE11DF91FBD01CF01A7
:1020C0001124089597FB092E07260AD077FD04D026
:1020D0002ED006D000201AF4709561957F4F089598
:1020E000F6F7909581959F4F0895A1E21A2EAA1BAD
:1020F000BB1BFD010DC0AA1FBB1FEE1FFF1FA217B8
:10210000B307E407F50720F0A21BB30BE40BF50BB4
:10211000661F771F881F991F1A9469F7609570953D
:10212000809590959B01AC01BD01CF010895AA1B3C
:10213000BB1B51E107C0AA1FBB1FA617B70710F0B2
:10214000A61BB70B881F991F5A95A9F780959095E4
:10215000BC01CD010895EE0FFF1F0590F491E02D15
:10216000199412E0CAE0D2E004C0FE010E94AD1052
:0C2170002296CC30D107C9F7F894FFCFBD
:10217C00003A002C0100008000C90500001F1C1F44
:10218C001E1F1E1F1F1E1F1E1F000000001B09917B
:10219C000AB108E208C2080B0900000000220D91E8
:0221AC000A0027
:00000001FF
